:100000000C9482000C94AA000C94AA000C94AA00F0
:100010000C94AA000C94AA000C94AA000C94AA00B8
:100020000C94AA000C94AA000C94AA000C94AA00A8
:100030000C94AA000C94AA000C94AA000C94AA0098
:100040000C940E0A0C94AA000C94930A0C946D0A5A
:100050000C94AA000C94AA000C94AA000C94AA0078
:100060000C94AA000C94AA0050395F31205065729C
:100070007369616E6100BE011900881300009E0162
:100080000100F4010000CE010A00F4010000D601D5
:100090000A00F4010000DA010A00F4010000DE01A8
:1000A0006400F401000000000000240027002A0082
:1000B00000000000250028002B00000000002300A5
:1000C00026002900040404040404040402020202B9
:1000D000020203030303030301020408102040800B
:1000E000010204081020010204081020000000088A
:1000F00000020100000304070000000000000000EF
:10010000B513E51411241FBECFEFD8E0DEBFCDBF7D
:1001100023E0A0E4B2E001C01D92A73FB207E1F7DF
:1001200012E0A0E0B1E0E2E2FFE202C005900D9231
:10013000A034B107D9F710E0C1E8D0E004C021979E
:10014000FE010E948215C038D107C9F70E94F60D42
:100150000C9484170C940000FC01538D448D252FC2
:1001600030E0842F90E0821B930B541710F0CF9651
:10017000089501970895FC01918D828D981761F083
:10018000828DDF01A80FB11D5D968C91928D9F5FCE
:100190009F73928F90E008958FEF9FEF0895FC0179
:1001A000918D828D981731F0828DE80FF11D858D2C
:1001B00090E008958FEF9FEF0895FC01918D228DBF
:1001C000892F90E0805C9F4F821B91098F73992744
:1001D000089580E090E0892B29F00E94040A8111A3
:1001E0000C9400000895CF93DF93E0914202F091C8
:1001F0004302208131818217930711F4F7963CC0A6
:10020000258136818217930719F4E35BFF4F34C0D1
:10021000228533858217930719F4ED59FF4F2CC0BF
:10022000278530898217930719F4E758FF4F24C0B8
:10023000248935898217930719F4E157FF4F1CC0B1
:10024000218D328D8217930719F4EB55FF4F14C09F
:10025000268D378D8217930719F4E554FF4F0CC094
:1002600023A134A18217930731F120A531A582176C
:10027000930709F5E951FF4F3097E9F0C281D38127
:10028000AB81BC81109761F08A81A80FB11DA80FC6
:10029000B11D0990D881C02D89819A818D939C933D
:1002A000208131812115310531F0CF010296F9010C
:1002B000DF91CF910994DF91CF910895CF93DF9390
:1002C00000D000D01F92CDB7DEB725E0FC01F2963A
:1002D000DE01119601900D922A95E1F729813A816C
:1002E0004B815C816D8170E080E090E00F900F9019
:1002F0000F900F900F90DF91CF910895CF93DF93E0
:1003000000D000D01F92CDB7DEB725E0FC01BD962E
:10031000DE01119601900D922A95E1F729813A812B
:100320004B815C816D8170E080E090E00F900F90D8
:100330000F900F900F90DF91CF9108950F931F931F
:10034000CF93DF93C0E0D0E080914C0390914D03B8
:10035000C817D90774F48C2F0E94BE0BFC010081D2
:1003600011818C2F0E94BE0B0296F80109952196EF
:10037000EBCFDF91CF911F910F91089582E593E02C
:100380000E94590B83E693E00E94590B84E793E0A7
:100390000E94590B85E893E00C94590B89EC93E08B
:1003A0000E94590B8AED93E00C94590B86E993E077
:1003B0000C94590B88EB93E00C94590B87EA93E06B
:1003C0000C94590B0C943D1581309105B1F030F02F
:1003D0008230910511F1039779F10895E0914E0271
:1003E000F0914F0261E080819181892B09F460E0F6
:1003F0006093EC038091EB030EC0E0914E02F0910C
:100400004F0261E082819381892B09F460E060935F
:10041000EE038091ED030C94DE0BE0914E02F0911F
:100420004F0261E084819581892B09F460E060933B
:100430008A0381E090E010C0E0914E02F0914F02FB
:1004400081E026813781232B09F480E080939B0390
:1004500060918A0384E090E00C94E201FC01848DB9
:10046000DF01A80FB11DA35ABF4F2C91848D90E0DE
:1004700001968F739927848FA689B7892C93A089B9
:10048000B1898C91837080648C93938D848D981343
:1004900006C00288F389E02D80818F7D80830895D6
:1004A000EF92FF920F931F93CF93DF93EC0181E0C4
:1004B000888F9B8D8C8D981305C0E889F989808180
:1004C00085FD26C0F62E0B8D10E00F5F1F4F0F73BA
:1004D0001127E02E8C8DE8120CC00FB607FCFACF66
:1004E000E889F989808185FFF5CFCE010E942E022F
:1004F000F1CF8B8DFE01E80FF11DE35AFF4FF08223
:100500009FB7F8940B8FEA89FB89808180620AC0CB
:100510009FB7F894EE89FF896083E889F989808123
:100520008370806480839FBF81E090E0DF91CF91F2
:100530001F910F91FF90EF900895CF93DF93EC01FF
:10054000888D8823C9F0EA89FB89808185FD05C0F3
:10055000A889B9898C9186FD0FC00FB607FCF5CF2D
:10056000808185FFF2CFA889B9898C9185FFEDCF75
:10057000CE010E942E02E7CFDF91CF910895FC01BA
:1005800015821482178216821186108613821282B7
:100590001586148617861686118A108A1386128687
:1005A00008950F931F93CF93DF93EC018B018BE999
:1005B00092E00E94580A64E371E08BE992E00E94A5
:1005C000580A0990D881C02D209769F0B801CE0152
:1005D0000E94580A64E371E0CE01DF91CF911F9130
:1005E0000F910C94580ADF91CF911F910F910895AC
:1005F000CF93DF93CDB7DEB72A970FB6F894DEBF5F
:100600000FBECDBFFC012481358145E0F901DE013B
:10061000169601900D924A95E1F72115310511F0DA
:1006200080E005C067E371E00E94D1020FC0861729
:1006300069F0F9012581368195E0F901DE01169610
:1006400001900D929A95E1F78F5FF1CF85E0FE0161
:100650003696DE01119601900D928A95E1F7298177
:100660003A814B815C816D8170E080E090E02A9658
:100670000FB6F894DEBF0FBECDBFDF91CF910895C6
:100680009F92AF92BF92CF92DF92EF92FF920F9321
:100690001F93CF93DF93CDB7DEB72A970FB6F894A9
:1006A000DEBF0FBECDBFDC0114962D913C91159796
:1006B000121613060CF063C0ED91FD918D010190AF
:1006C000F081E02DA180B280C380D480968460E068
:1006D000CD010E94F8022E833F83488759876A879D
:1006E000EE81FF81E180F28060E0C8010E94F802A3
:1006F00029833A834B835C836D83E981FA8183810B
:100700009481209140023091410221303105D1F095
:1007100038F02230310531F12330310551F12FC04D
:10072000AC14BD0461F1E816F90649F5911003C057
:1007300081E090E002C082E090E0909341028093DB
:1007400040021DC0AC14BD04D1F4911018C0E816CD
:10075000F90629F4109241021092400210C083E081
:1007600090E0EBCFAC14BD0451F4B1E09B1207C094
:10077000EECFAC14BD0419F4E816F90659F32A9625
:100780000FB6F894DEBF0FBECDBFDF91CF911F91A2
:100790000F91FF90EF90DF90CF90BF90AF909F9020
:1007A0000895EF92FF920F931F93CF93DF9300D0A2
:1007B00000D01F92CDB7DEB7DC01ED91FC91019026
:1007C000F081E02D218132818381948128173907BE
:1007D00071F560E082E493E00E94F80229833A8395
:1007E0004B835C836D83E52FF62FE40FF11DE40F3F
:1007F000F11DE080F180B1E0EB2600E010E0809197
:10080000440390914503081719078CF4602F82E484
:1008100093E00E94F802842F5C836D834C815D819C
:10082000B70190E00E94490B0F5F1F4FE8CF0F9078
:100830000F900F900F900F90DF91CF911F910F911C
:10084000FF90EF900895AF92BF92CF92DF92EF9218
:10085000FF920F931F93CF93DF9300D000D01F928E
:10086000CDB7DEB77C01DC01ED91FC910190F08108
:10087000E02DCC24C394D12C2181328183819481B9
:100880002817390711F4C12CD12C00E010E05701D2
:10089000BAE0AB0EB11CF7018485958508171907DE
:1008A00084F4602FC5010E94F802842F5C836D835D
:1008B0004C815D81B60190E00E94490B0F5F1F4F94
:1008C000EACF0F900F900F900F900F90DF91CF9184
:1008D0001F910F91FF90EF90DF90CF90BF90AF905E
:1008E0000895AF92BF92CF92DF92EF92FF920F9353
:1008F0001F93CF93DF9300D000D01F92CDB7DEB708
:10090000DC01ED91FC910190F081E02D418152815B
:10091000238134814217530799F58C015C01BAE0B9
:10092000AB0EB11C60E0C5010E94F80229833A8336
:100930004B835C836D83E52FF62FE40FF11DE40FED
:10094000F11DC080D180E1E0CE26E12CF12CD80150
:100950001C968D919C911D97E816F9068CF46E2DCE
:10096000C5010E94F802842F5C836D834C815D81F8
:10097000B60190E00E94490BBFEFEB1AFB0AE7CFEC
:100980000F900F900F900F900F90DF91CF911F91CC
:100990000F91FF90EF90DF90CF90BF90AF900895B0
:1009A000AF92BF92CF92DF92EF92FF920F931F937D
:1009B000CF93DF9300D000D01F92CDB7DEB76C018C
:1009C00000E010E05C018AE0A80EB11CE62EF12CDC
:1009D000F601848595850817190784F4602FC501F1
:1009E0000E94F802842F5C836D834C815D81B70186
:1009F00090E00E94490B0F5F1F4FEACF0F900F90BE
:100A00000F900F900F90DF91CF911F910F91FF905A
:100A1000EF90DF90CF90BF90AF9008950F931F930A
:100A2000CF93DF9300D000D01F92CDB7DEB78C01FB
:100A3000809114018F3FC9F460E0C8010A960E94BA
:100A4000F80229833A834B835C836D83E52FF62F6D
:100A5000E40FF11DE40FF11D80819181892B11F0CC
:100A600081E001C082E08093140180911401813003
:100A700019F08230C1F039C0D801ED91FC91A0810C
:100A8000B181E0914C02F0914D0211962D913C9173
:100A9000129784819581281739073CF182E0809371
:100AA000140160E016C0D801ED91FC91A081B181E4
:100AB000E0914C02F0914D0211962D913C911297CC
:100AC000868197818217930784F081E080931401D7
:100AD00061E0C8010F900F900F900F900F90DF9181
:100AE000CF911F910F910C94D0040F900F900F9005
:100AF0000F900F90DF91CF911F910F9108950F9359
:100B00001F93CF93DF93EC01E881F9810190F0818D
:100B1000E02D218132818381948128173907A9F042
:100B20008581882391F00A891B890E945D0DF80157
:100B30006083718382839383EA89FB898085811135
:100B400033C081E0808761E028C00E945D0DEA89A2
:100B5000FB890081118122813381AB01BC01401BE3
:100B6000510B620B730BA681B7810D90BC91A02D28
:100B700024813581A29FC001A39F900DB29F900D4B
:100B80001124A0E0B0E084179507A607B70760F42A
:100B90008085882349F0108660E0CE01DF91CF91F7
:100BA0001F910F910C94D004DF91CF911F910F9161
:100BB0000895EF92FF920F931F93CF93DF9300D08E
:100BC00000D01F92CDB7DEB78C0129833A834B83C7
:100BD0005C836D83FC01E680F78087E090E00E94F3
:100BE0008815F80197838683892B29F46AE671E0DA
:100BF000C8010E94D102F801A681B78116961C9205
:100C00001E92159785E0FE01319601900D928A950E
:100C1000E1F7F8012481358186819781232B19F42E
:100C20009583848303C0F70196838583F8018281CD
:100C300093810196938382830F900F900F900F9072
:100C40000F90DF91CF911F910F91FF90EF9008953A
:100C50000F931F93CF93DF93EC018C819D810097BD
:100C600069F0FC01058116810E9420161D830C830A
:100C70008A819B8101979B838A83EFCF81E0DF91FB
:100C8000CF911F910F910895CF93DF93CDB7DEB72A
:100C90002F970FB6F894DEBF0FBECDBF1092710331
:100CA00081E080936003809142029091430220E4AE
:100CB00033E0FC0130AF27ABE35BFF4F3183208390
:100CC000FC012081318122553340A9F425E0FC014B
:100CD000DE01169601900D922A95E1F725E0FE01BE
:100CE0003696DE01119601900D922A95E1F725E0E6
:100CF000FE01319609C0FC01258136812255334021
:100D000049F425E0FC013596DE011B9601900D9219
:100D10002A95E1F725E0FE013B96DE01169601904B
:100D20000D922A95E1F725E0FE013696DE011B962D
:100D300001900D922A95E1F72B853C854D855E85C6
:100D40006F858F5A9F4F0E94D9052F960FB6F89442
:100D5000DEBF0FBECDBFDF91CF9108958F929F92DE
:100D6000AF92BF92CF92DF92EF92FF920F931F93B9
:100D7000CF93DF93CDB7DEB7C456D1090FB6F89441
:100D8000DEBF0FBECDBF8230910509F481C2B0F441
:100D90000097E1F0019709F0F1C2E0914C02F09167
:100DA0004D02638182E090E00E94E201E0914C02FA
:100DB000F0914D02628183E090E07AC28330910528
:100DC00009F48BC2059709F499C2D8C2E0914C028C
:100DD000F0914D02608180E090E00E94E201E0919C
:100DE0004C02F0914D028081813709F447C108F02F
:100DF00051C0823609F4B1C0833609F415C1813679
:100E000009F0BCC20E94EE0A809142029091430216
:100E100003E214E0FC0110AF07ABE55BFF4F11826A
:100E200010828D5B9F4F0E942806E0904202F09056
:100E30004302C7010E947E01C7018D5B9F4F0E9444
:100E4000D9058091420290914302FC01E35BFF4F80
:100E500011830083749611821082875A9F4F0E94DB
:100E60002806E0904202F0904302C7010E945E0112
:100E7000C701875A9F4F0E94D905809142029091E5
:100E80004302FC01ED59FF4F1183008374961182D8
:100E90001082A0C0843809F473C1813909F4E3C118
:100EA000823709F06BC28091420290914302FC01AB
:100EB000E554FF4F11821082E254F1092FE735E02B
:100EC000318320838B579F4F0E94280688EE93E042
:100ED0009093100180930F0186E492E090931201A9
:100EE000809311010091420210914302F801E357EF
:100EF000FF4F8BE091E091838083C8010E947E01C7
:100F0000C8018B579F4F0E94D9050E94EE0A80911D
:100F100042029091430287589F4F0E940D0BE0912F
:100F20004202F091430281ED93E090AF87ABDF0185
:100F3000A35BBF4F8D939C93ED59FF4F91838083AB
:100F400082E493E00E94280680914202909143023D
:100F50000E945E0182E493E083C10E94EE0A8091C8
:100F600042029091430201E714E0FC0110AF07AB8D
:100F70008D5B9F4F0E942806E0904202F090430252
:100F8000C7010E947E01C7018D5B9F4F0E94D9055A
:100F90008091420290914302FC01E35BFF4F118379
:100FA0000083875A9F4F0E942806E0904202F090EB
:100FB0004302C7010E945E01C701875A9F4F0E94EA
:100FC000D9058091420290914302FC01ED59FF4FF7
:100FD0001183008381599F4F0E942806009142028D
:100FE00010914302C8010E947E01C80181599F4FA0
:100FF0000E94D9050091420210914302C8010E944B
:101000005E01C80181599F4F0E94D905809142021B
:1010100090914302FC01E554FF4F11821082E2548B
:10102000F10911821082AAC10E94EE0AE0914202E7
:10103000F091430281ED93E090AF87ABDF01A35BBA
:10104000BF4F8D939C93ED59FF4F9183808382E432
:1010500093E00E94280680914202909143020E94F0
:101060007E0182E493E00E94D90580914202909132
:1010700043020E945E0182E493E0C6CF8091420267
:10108000909143022FE7822E25E0922EFC0190AE34
:1010900087AA8D5B9F4F0E942806AA24A394B12C97
:1010A000B0921001A0920F0148EBC42E4BE0D42E59
:1010B000D0920A01C092090159E0E52E51E0F52EC7
:1010C000F0921201E092110100914202109143024C
:1010D000F801E55BFF4F8BE091E091838083C801CD
:1010E0000E947E01C8018D5B9F4F0E94D9058091AF
:1010F000420290914302FC01E35BFF4F91828082A8
:10110000875A9F4F0E942806B0920501A0920401C1
:10111000D0920A01C0920901F0920701E092060103
:101120000091420210914302F801EF59FF4F80E015
:1011300091E091838083C8010E945E01C801875AB3
:101140009F4F0E94D9050E94EE0A80914202909121
:101150004302C7960E940D0B809142029091430278
:10116000835B9F4F0E940D0B80914202909143023E
:10117000FC01ED59FF4F11821082E85AFF4F4DCF0D
:101180000E94EE0A809142029091430201E714E02E
:10119000FC0110AF07AB8D5B9F4F0E942806E090CB
:1011A0004202F0904302C7010E947E01C7018D5B9D
:1011B0009F4F0E94D905E0904202F0904302C70180
:1011C0000E945E01C7018D5B9F4F0E94D9058091EF
:1011D000420290914302FC01E35BFF4F11830083C5
:1011E000875A9F4F0E9428060091420210914302A5
:1011F000C8010E947E01C801875A9F4F0E94D905ED
:101200000091420210914302C8010E945E01C80190
:10121000875A9F4F0E94D9050091420210914302C4
:10122000F801ED59FF4F11821082769611821082DB
:10123000EE5BFF4F8EE095E091838083C8010E94B2
:101240007E01C80189539F4F0E94D9050091420237
:1012500010914302C8010E945E01C80189539F4F4B
:101260000E94D9058BC0CC59DF4F0FB6F894DEBF72
:101270000FBECDBFDF91CF911F910F91FF90EF90E7
:10128000DF90CF90BF90AF909F908F900C944406CA
:10129000E0914C02F0914D02658185E090E00E9462
:1012A000E201E0914C02F0914D02648186E090E011
:1012B000CC59DF4F0FB6F894DEBF0FBECDBFDF9124
:1012C000CF911F910F91FF90EF90DF90CF90BF9043
:1012D000AF909F908F900C94E201E0914C02F091BE
:1012E0004D02678187E090E00E94E201E0914C02AC
:1012F000F0914D02668188E090E0DACFE0914C02F7
:10130000F0914D02828593858130910551F028F04E
:101310008230910589F0039789F51092F00360E01F
:1013200016C01092F20360E08091F1030E94DE0B80
:1013300081E08093F0030AC011E01093F20361E0B2
:101340008091F1030E94DE0B1093F00361E0809125
:10135000EF03CC59DF4F0FB6F894DEBF0FBECDBF01
:10136000DF91CF911F910F91FF90EF90DF90CF9081
:10137000BF90AF909F908F900C94DE0BCC59DF4FB5
:101380000FB6F894DEBF0FBECDBFDF91CF911F9196
:101390000F91FF90EF90DF90CF90BF90AF909F9014
:1013A0008F9008950C943515CF92DF92EF92FF92B3
:1013B0000F931F93CF93DF936C017A018B01C0E0F1
:1013C000D0E0CE15DF0581F0D8016D918D01D601F9
:1013D000ED91FC910190F081E02DC6010995892BDA
:1013E00011F02196EECF7E01C701DF91CF911F91C1
:1013F0000F91FF90EF90DF90CF900895089580E0D7
:1014000090E008950E946F178BE992E00E94DD0042
:1014100021E0892B09F420E0822F08951F920F927A
:101420000FB60F9211242F933F938F939F93AF93F7
:10143000BF938091910290919202A0919302B091FA
:1014400094023091900223E0230F2D3720F401966F
:10145000A11DB11D05C026E8230F0296A11DB11DD7
:10146000209390028093910290939202A093930212
:10147000B09394028091950290919602A091970268
:10148000B09198020196A11DB11D80939502909391
:101490009602A0939702B0939802BF91AF919F914B
:1014A0008F913F912F910F900FBE0F901F90189525
:1014B0006115710579F0FB0101900020E9F7319782
:1014C000AF01461B570BDC01ED91FC910280F381CB
:1014D000E02D099480E090E008951F920F920FB6DE
:1014E0000F9211242F933F934F935F936F937F93AA
:1014F0008F939F93AF93BF93EF93FF938BE992E00A
:101500000E942E02FF91EF91BF91AF919F918F9119
:101510007F916F915F914F913F912F910F900FBEEF
:101520000F901F9018951F920F920FB60F921124D3
:101530002F938F939F93EF93FF93E091AB02F091E2
:10154000AC028081E091B102F091B20282FD12C042
:1015500090818091B4028F5F8F732091B5028217C2
:1015600051F0E091B402F0E0E556FD4F958F809385
:10157000B40201C08081FF91EF919F918F912F91D3
:101580000F900FBE0F901F901895833081F028F4B4
:10159000813099F08230A1F008958730A9F0883029
:1015A000B9F08430D1F4809180008F7D03C08091A8
:1015B00080008F7780938000089584B58F7702C074
:1015C00084B58F7D84BD08958091B0008F7703C06E
:1015D0008091B0008F7D8093B0000895CF93DF930A
:1015E00080914E0390914F03009799F0FC01C281C6
:1015F000D3810E942016D0934F03C0934E03809155
:101600004C0390914D03019790934D0380934C03AD
:10161000E7CF81E0DF91CF9108950F931F93CF9390
:10162000DF938C01C0915003D091510384E090E08E
:101630000E9488159093510380935003892B31F4B5
:101640006AE671E08AE493E00E94D102E0915003DF
:10165000F0915103138212821183008380914E0313
:1016600090914F03892B29F4F0934F03E0934E039D
:1016700002C0FB83EA8380914C0390914D03019655
:1016800090934D0380934C03DF91CF911F910F9165
:1016900008959C01220F331FFA01E20FF31F71839B
:1016A0006083E0914003F0914103309709F0099481
:1016B00008950F931F93CF93DF93FC01258122237D
:1016C00009F457C0EC0186819781009719F00197C2
:1016D00029F13CC0208130E0F901E451FF4F8491B1
:1016E000F901E852FF4F0491F901EC53FF4F1491B7
:1016F000112361F181110E94C50AE12FF0E0EE0F84
:10170000FF1FE654FF4FA591B491EC91E02331E027
:1017100020E009F430E0832F922F1AC080818E30B0
:1017200008F08E508770806480937C0080917A00EE
:10173000806480937A0080917A0086FDFCCF80914E
:1017400078002091790090E0922B02C080E090E038
:1017500029813A812817390761F09A838983EF85B7
:10176000F889309731F0CE01DF91CF911F910F9121
:101770000994DF91CF911F910F910895CF93DF933B
:10178000E0914E03F0914F03C081D181309711F069
:1017900090E007C067E371E08AE493E00E94D10221
:1017A00009C0981739F00280F381E02DC081D18102
:1017B0009F5FF7CFCE01DF91CF9108951F93CF9315
:1017C000DF93282F30E0F901E451FF4F8491F901B4
:1017D000E852FF4FD491F901EC53FF4FC491CC2351
:1017E000C1F0162F81110E94C50AEC2FF0E0EE0F18
:1017F000FF1FE055FF4FA591B4919FB7F8941111C9
:1018000004C08C91D095D82302C0EC91DE2BDC93E0
:101810009FBFDF91CF911F9108953FB7F8948091BA
:10182000950290919602A0919702B091980226B5E8
:10183000A89B05C02F3F19F00196A11DB11D3FBF08
:10184000BA2FA92F982F8827820F911DA11DB11D96
:10185000BC01CD0142E0660F771F881F991F4A9592
:10186000D1F708958F929F92AF92BF92CF92DF925D
:10187000EF92FF926B017C010E940D0C4B015C0109
:10188000C114D104E104F104F1F00E940D0CDC015B
:10189000CB0188199909AA09BB09883E9340A10583
:1018A000B10570F321E0C21AD108E108F10888EE11
:1018B000880E83E0981EA11CB11CC114D104E10460
:1018C000F10419F7DDCFFF90EF90DF90CF90BF903C
:1018D000AF909F908F9008950F931F93CF93DF93B6
:1018E0008C01C62F80913903823074F09091C00032
:1018F00090649093C00061E00E94DE0B61E070E0B4
:1019000080E090E00E94320C902FF8012FEF3FEF23
:101910008E2F891B8C1788F48191282788E0A901D4
:101920004170552736952795452B21F041E0242716
:1019300040EA3427815099F7EBCF3227232732270B
:10194000F801EC0FF11D308381E08C0FF801E80FF6
:10195000F11D2083CE5F8091990290919A02D0E090
:10196000DC01ED91FC910280F381E02DAE01B80124
:1019700009956AE070E080E090E00E94320C80916E
:10198000390382303CF09091C00096FFFCCF60E0BC
:101990000E94DE0BCE01DF91CF911F910F91089530
:1019A0000F931F93CF93DF93CDB7DEB7C054D10908
:1019B0000FB6F894DEBF0FBECDBF90913803998368
:1019C0008A8381E08B83CB01880F991FF901E80F8F
:1019D000F91FCB0120E0DB01A40FB11D382F361B0E
:1019E0008A179B0778F40191119141E050E0012B97
:1019F00011F440E050E001C0440F3A95EAF7242B7F
:101A00000196ECCF2C8364E0CE0101960E946C0C11
:101A1000C05CDF4F0FB6F894DEBF0FBECDBFDF91C5
:101A2000CF911F910F910895EF92FF920F931F9303
:101A3000CF93DF93CDB7DEB7C054D1090FB6F8947A
:101A4000DEBF0FBECDBF9091380399838A83842F68
:101A5000880F8B83CB01880F991F280F391FDE0158
:101A600011967B0163E070E0CD018701040F111D29
:101A70001296E016F10688F4F901408151812E5F3B
:101A80003F4F11965C93119712964C9312976E5F8D
:101A90007F4FFFEFEF1AFF0AEBCF0E946C0CC05C88
:101AA000DF4F0FB6F894DEBF0FBECDBFDF91CF91F1
:101AB0001F910F91FF90EF9008952FB7F8946091C8
:101AC00091027091920280919302909194022FBFA3
:101AD00008950F931F93CF93DF93EC018C01085F60
:101AE0001F4F198618861B861A861D861C8660E085
:101AF00070E0C8010E94910D811107C0C801DF91FB
:101B0000CF911F910F910C94B80D1D861C8666E332
:101B100071E088859985DF91CF911F910F910C9489
:101B20007D170F931F93CF93DF93EC0188819981E9
:101B3000009729F02A813B812617370788F48B010B
:101B40006F5F7F4F0E94A916009761F09983888389
:101B50001B830A832C813D81232B11F4FC0110820D
:101B600081E001C080E0DF91CF911F910F91089536
:101B7000CF93DF93EC0188819981009711F00E9447
:101B80002016198218821D821C821B821A82DF9104
:101B9000CF910895EF92FF920F931F93CF93DF930E
:101BA0008C017B016115710569F0FB01019000203A
:101BB000E9F73197EF01C61BD70BBE010E94910DCB
:101BC000811104C0C8010E94B80D08C0F801D58376
:101BD000C483B701808191810E947D17C801DF9184
:101BE000CF911F910F91FF90EF900895CF93DF93C6
:101BF000CDB7DEB7C055D1090FB6F894DEBF0FBE22
:101C0000CDBF789484B5826084BD84B5816084BD85
:101C100085B5826085BD85B5816085BD80916E008A
:101C2000816080936E0010928100809181008260BB
:101C300080938100809181008160809381008091F8
:101C400080008160809380008091B10084608093E7
:101C5000B1008091B00081608093B00080917A00E3
:101C6000846080937A0080917A00826080937A0009
:101C700080917A00816080937A0080917A008068F8
:101C800080937A001092C1008BE992E090939A02BF
:101C90008093990284E492E090934D0280934C02E9
:101CA00082E692E090934F0280934E028AE592E0A2
:101CB000909371028093700280E592E090936F029E
:101CC00080936E0224E0222E20926B0220926D02FD
:101CD00020926C0285E080936A0233243394309220
:101CE000380310923903E091AB02F091AC0232E07C
:101CF000C32EC082E091A702F091A8021082E09169
:101D0000A902F091AA0287E680831092B302E091C3
:101D1000AF02F091B00246E0D42ED082E091AD0245
:101D2000F091AE02808180618083E091AD02F091FC
:101D3000AE02808188608083E091AD02F091AE02B6
:101D4000808180688083E091AD02F091AE02808155
:101D50008F7D80838091C20086608093C2008EE177
:101D600097E0A0E0B0E080933A0390933B03A09308
:101D70003C03B0933D0383E191E00E9488158C0100
:101D8000C9960E94BF0248012DE4820E911CC40135
:101D900002960E94BF02580133E6A30EB11CC50192
:101DA00002960E94BF02680149E7C40ED11CC60119
:101DB00002960E94BF0278015FE8E50EF11CC701A0
:101DC00002960E94BF02380185EA680E711CC301A9
:101DD00002960E94BF0228019BEB490E511CC201D2
:101DE00002960E94BF02D801AF52BF4F2B96BFAFE1
:101DF000AEAF2B97CD0102960E94BF02F801E951C8
:101E0000FF4F2D96FFAFEEAF2D97CF0102960E94A8
:101E1000BF02C80181509F4F0E94BF0282E593E03C
:101E2000D80111969C938E93E0917002F09171020B
:101E30001496FC93EE93139712961C92129783EFCD
:101E400090E0909362038093610323E633E016965B
:101E50003C932E9315971996FC93EE93189717962B
:101E60003C921797909373038093720324E733E0B7
:101E70001B963C932E931A971E96FC93EE931D97F8
:101E800022E01C962C931C979093840380938303E9
:101E900025E833E050963C932E931F975396FC937E
:101EA000EE93529743E051964C93519720918803BB
:101EB000309189033783268390939503809394030D
:101EC00029EC33E055963C932E93549720916E0263
:101ED00030916F0258963C932E93579756961C92CA
:101EE00056979093D9038093D8036AED73E05A967E
:101EF0007C936E9359975D963C932E935C975B967B
:101F00003C925B979093EA038093E90366E973E060
:101F10005F967C936E935E9792963C932E939197E7
:101F200052E090965C9390979093A6038093A503BC
:101F300067EA73E094967C936E93939797963C939D
:101F40002E93969795964C9395979093B70380937D
:101F5000B60348EB53E099965C934E9398979C9602
:101F60003C932E939B979A962C929A979093C803A2
:101F70008093C7038BEE93E09E969C938E939D97E0
:101F800080914E0290914F02D1969C938E93D09760
:101F90009F961C929F972DEE33E0D3963C932E9301
:101FA000D297D6969C938E93D597D4963C92D497FD
:101FB000D8961C921E92D797DA961C930E93D997B7
:101FC000D4011D921C92F801E15BFF4FC8010596F8
:101FD00091838083F5011182108232960596918358
:101FE0008083D6011D921C927696059691838083FC
:101FF000F701118210823296059691838083D30176
:102000001D921C927696059691838083F20111822F
:10201000108232960596918380832B96AEADBFAD2C
:102020002B971D921C9276960596918380832D9610
:10203000EEADFFAD2D9711821082F801E751FF4FF1
:10204000059691838083109343020093420284EEAD
:1020500091E090934103809340038EEA96E0909341
:102060003F0380933E030E94440681E090E00E947B
:10207000D209682F70E042E652E082E090E00E94D0
:10208000490BE0904C02F0904D0282E090E00E94FB
:10209000D209182F83E090E00E94D209212F30E06E
:1020A000322F2227280F311DD70113963C932E93F0
:1020B000129784E090E00E94D209682F70E042E617
:1020C00052E083E090E00E94490BE0904C02F090D7
:1020D0004D0285E090E00E94D209182F86E090E042
:1020E0000E94D209212F30E0322F2227280F311DE4
:1020F000F7013583248387E090E00E94D209182FEE
:1021000088E090E00E94D209212F30E0322F222770
:10211000280F311DD70117963C932E93169786E70B
:1021200090E09093790280937802B6E0B0937A02BF
:102130008CE090E00E94881590937E0280937D024F
:102140002CE0FC0111922A95E9F710927C02109282
:102150007B0208E610E0F8016491611111C064E3AC
:1021600071E08BE992E00E94580A80E1282E9E01DE
:102170002F5F3F4F590192E2892E91E0992E6DC059
:102180008BE992E00E9450020F5F1F4F892B19F7D5
:10219000E6CF0E940D0C60938C0270938D028093A9
:1021A0008E0290938F028091990290919A02DC01A5
:1021B000ED91FC910084F185E02D09958C010E9440
:1021C0000D0C0115110509F05EC0109277021092F6
:1021D000760280917B0290917C02019690937C0222
:1021E00080937B0240908C0250908D0260908E0212
:1021F00070908F020E940D0C50E1450E57E2551E63
:10220000611C711C461A570A680A790A82010E94E9
:102210000D0C312C20917A02321608F419C18091EC
:10222000870290918802A0918902B0918A02800F62
:10223000911FA11DB11D8093870290938802A093E6
:102240008902B0938A0280918B028F5F803209F4F9
:1022500077C180938B020E94E9000E940D0C0091CF
:102260008C0210918D0220918E0230918F02DC0140
:10227000CB01801B910BA20BB30B81319742A105BF
:10228000B10548F386CF209176023091770202178C
:102290001307D9F0109377020093760200913A0366
:1022A00010913B0320913C0330913D03DC01CB01B5
:1022B000800F911FA21FB31F80937202909373022D
:1022C000A0937402B093750284CF009172021091B2
:1022D00073022091740230917502601771078207B2
:1022E000930708F476CF1092770210927602650178
:1022F000612C712C8091990290919A02DC01ED91F0
:10230000FC910084F185E02D09958C01892BB1F0B9
:102310008091990290919A02DC01ED91FC910284E6
:10232000F385E02D0995F60181936F01FFEF6F1A98
:102330007F0A20E462167104E9F685C06114710415
:1023400009F47EC03EEF360DF5018FEF9FEF2E2F83
:102350002A19231788F42191822728E0AC014170C3
:10236000552796958795452B21F041E0842740EA33
:102370009427215099F7EBCFEFEFFFEFEC0FFD1F04
:10238000E60DF71D208130E0322F2227FE01E60DF9
:10239000F71D4081242B982789279827281739076C
:1023A00009F051C0E09138038981E8134CC09A814B
:1023B000ABE1B1E08D918917B1F08A169B06D1F798
:1023C00001E010E02296EFAF2297905823969FAF3E
:1023D000239724960FAF249763E0CE018F5B9F4F26
:1023E0000E946C0C2DC0963089F0953009F0BFC06A
:1023F0002B8130E0322F22278C81280F311D409114
:102400006D0250E02417350708F06BC1AB81B0E0D6
:10241000BA2FAA278C81A80FB11D933009F4F3C0FD
:1024200008F0EAC0913009F0DBC020914E023091F3
:102430004F024E81BD0181E090E00E94D00C8C01E2
:10244000012B09F4C6CE0E945D0D0E945D0DC1CE28
:10245000232D30E06901CC0CDD1C53E0220F331F2B
:102460005A95E1F7E0917802F0917902DF01A20F2D
:10247000B31FFD01329645915491E0917D02F09198
:102480007E02EC0DFD1D20917B0230917C020190BB
:10249000F081E02D2E1B3F0B2417350708F44EC0AA
:1024A000FD0134962591349140E050E020937F0265
:1024B0003093800240938102509382022801612C64
:1024C000712C4216530664067506C0F160938302B0
:1024D000709384028093850290938602FD0185911A
:1024E0009491FC01099580917B0290917C0220914E
:1024F0007D0230917E02F901EC0DFD1D91838083F8
:102500000E940D0CC0908302D0908402E09085025E
:10251000F09086029B01AC012C193D094E095F0920
:1025200061962CAF3DAF4EAF5FAF61972415350577
:102530004605570508F087CE021B130B33946ACE6D
:1025400020928B028091870290918802A09189024B
:10255000B0918A02B695A795979587958093870243
:1025600090938802A0938902B0938A0274CE4D8121
:1025700050E0542F44278E81480F511D923019F49A
:1025800020916C0204C0913029F420916D0230E05A
:1025900068E00FC0933019F420916B0204C09430AE
:1025A00029F420916A0230E069E103C020E030E0C4
:1025B00060E04115510509F491C070E0641775079A
:1025C00008F48CC06B8170E0762F66278C81680FD1
:1025D000711D460F571F2417350708F482C016CF08
:1025E000923009F078C020917002309171024E81D2
:1025F000BD0182E090E021CF953009F448C060F041
:102600009630A9F068C020914C0230914D024E8165
:10261000BD0183E090E008C020916E0230916F020E
:102620004E81BD0184E090E00E94140D08CF4091DE
:102630004C0250914D022D813E81322723273227B3
:102640002296EFAF229723969FAF23972496BFAF92
:1026500024972596AFAF259726963FAF26972796C6
:102660002FAF2797CD01880F991FFA01E80FF91FA7
:1026700031832083E0913E03F0913F03309711F0C6
:10268000CD0109958BE992E00E949D021EC0409108
:102690004E0250914F026D817E8176276727762703
:1026A0002296EFAF229723969FAF23972496BFAF32
:1026B00024972596AFAF259726967FAF2697279626
:1026C0006FAF2797CD010E94490B66E0CE018F5B6B
:1026D0009F4F0E946C0C01E010E0B2CE03E010E0CE
:1026E00071CE02E010E06ECEFC01808191810C94ED
:1026F0002016CF93DF9390E0FC01E852FF4F249126
:10270000FC01EC53FF4F8491882361F190E0880F26
:10271000991FFC01EA55FF4FC591D491FC01E0558A
:10272000FF4FA591B491611109C09FB7F8948881BA
:10273000209582238883EC912E230BC0623061F4B4
:102740009FB7F8948881322F309583238883EC914A
:102750002E2B2C939FBF06C08FB7F894E8812E2BA9
:1027600028838FBFDF91CF910895EF92FF921F933F
:10277000CF93DF93EBE9F2E01382128288EE93E0CD
:10278000A0E0B0E084839583A683B78386E291E0DE
:102790009183808385EC90E09587848784EC90E03A
:1027A0009787868780EC90E0918B808B81EC90E01E
:1027B000938B828B82EC90E0958B848B86EC90E0FF
:1027C000978B868B118E128E138E148E82E593E07A
:1027D0000E94690D83E693E00E94690D84E793E00F
:1027E0000E94690D85E893E00E94690D86E993E0F7
:1027F0000E94690D87EA93E00E94690D88EB93E0DF
:102800000E94690D89EC93E00E94690D8AED93E0C6
:102810000E94690D60E083E00E94791360E084E02B
:102820000E94791360E08DE00E94791361E088E0F6
:102830000E94791361E08BE00E94791361E085E0EA
:102840000E94791361E08CE00E947913C2E5D3E025
:1028500083E0888311E01D831F821E826BE971E093
:102860008AE593E00E94CA0DEE24E394F12CFC82E9
:10287000EB8284E0898B1E8B188E1F8A63EA71E0DD
:102880008BE693E00E94CA0DFD8AEC8A8DE08AA354
:102890001FA319A618A66BEA71E08CE793E00E94CB
:1028A000CA0D1EA21DA287E08BAB18AF1AAE19AEDF
:1028B00060EC71E08DE893E00E94CA0D1FAA1EAA89
:1028C00082E18093C9031093CE03F092D003E0928B
:1028D000CF036BED71E081ED93E00E94CA0D83E1BF
:1028E0008093DA031093DF03F092E103E092E003B8
:1028F0006BEE71E082EE93E00E94CA0D8EE0809351
:10290000960310939B03F0929D03E0929C036BEF60
:1029100071E08EE993E00E94CA0D80E18093A703E5
:102920001093AC03F092AE03E092AD0369E072E065
:102930008FEA93E00E94CA0D81E18093B80310935F
:10294000BD03F092BF03E092BE0364E272E080EC4C
:1029500093E00E94CA0D88E08093EB031092EC0391
:102960008BE08093ED031092EE038CE08093EF03F5
:102970001092F00385E08093F1031092F203E2E4F9
:10298000F3E013821282158214821782168211825A
:102990001082EAE4F3E01382128215821482178215
:1029A000168211821082E8E3F3E011821082128213
:1029B0001382148215821782168211861086DF9187
:1029C000CF911F91FF90EF900895CF93DF93C09127
:1029D0004E03D0914F03CD2B71F080914E03909117
:1029E0004F03FC01C281D3810E942016D0934F0374
:1029F000C0934E03F0CFC0914603D0914703CD2B37
:102A000071F08091460390914703FC01C581D68106
:102A10000E942016D0934703C0934603F0CF82EE66
:102A200093E00E94741381ED93E00E94741380EC94
:102A300093E00E9474138FEA93E00E9474138EE96E
:102A400093E00E9474138DE893E00E9474138CE766
:102A500093E00E9474138BE693E00E9474138AE55E
:102A600093E0DF91CF910C947413F999FECF92BD4E
:102A700081BDF89A992780B50895262FF999FECF40
:102A80001FBA92BD81BD20BD0FB6F894FA9AF99A8B
:102A90000FBE019608952F923F924F925F926F92D0
:102AA0007F928F929F92AF92BF92CF92DF92EF92DE
:102AB000FF920F931F93CF93DF93CDB7DEB7CA1B5F
:102AC000DB0B0FB6F894DEBF0FBECDBF09942A888A
:102AD000398848885F846E847D848C849B84AA8432
:102AE000B984C884DF80EE80FD800C811B81AA81BF
:102AF000B981CE0FD11D0FB6F894DEBF0FBECDBF8A
:102B0000ED010895EE0FFF1F0590F491E02D09945B
:102B10000F931F93CF93DF938230910510F482E0DF
:102B200090E0E091F503F091F60320E030E0A0E0C2
:102B3000B0E0309719F1408151810281138148172B
:102B40005907C8F08417950769F4109731F0129669
:102B50000C93129713961C9327C00093F5031093C0
:102B6000F60322C02115310519F04217530718F456
:102B70009A01BD01EF01DF01F801DBCF211531051D
:102B8000F9F0281B390B2430310580F48A819B81B0
:102B90006115710521F0FB019383828304C090933A
:102BA000F6038093F503FE01329644C0FE01E20F66
:102BB000F31F8193919322503109398328833AC0BE
:102BC0002091F3033091F403232B41F4209117015A
:102BD000309118013093F4032093F30320911501F1
:102BE000309116012115310541F42DB73EB74091C2
:102BF000190150911A01241B350BE091F303F09158
:102C0000F403E217F307A0F42E1B3F0B2817390734
:102C100078F0AC014E5F5F4F2417350748F04E0F38
:102C20005F1F5093F4034093F3038193919302C089
:102C3000E0E0F0E0CF01DF91CF911F910F91089577
:102C4000CF93DF93009709F481C0FC013297138280
:102C50001282A091F503B091F603109781F42081C0
:102C60003181820F931F2091F3033091F4032817D1
:102C7000390751F5F093F403E093F30367C0ED01D6
:102C800020E030E0CE17DF0740F44A815B819E01EF
:102C900041155105F1F0EA01F5CFD383C28340819C
:102CA0005181840F951FC817D90759F488819981DC
:102CB000840F951F0296918380838A819B819383E1
:102CC00082832115310529F4F093F603E093F5038F
:102CD0003DC0E901FB83EA8349915991C40FD51F97
:102CE000EC17FD0761F480819181840F951F029696
:102CF000E90199838883828193819B838A83E0E0C1
:102D0000F0E012968D919C911397009719F0FD01B8
:102D1000DC01F7CF8D919C9111979D012E5F3F4F64
:102D2000820F931F2091F3033091F4032817390782
:102D300069F4309729F41092F6031092F50302C05B
:102D400013821282B093F403A093F303DF91CF9127
:102D50000895A0E0B0E0EFEAF6E10C944F15EC0125
:102D6000009721F4CB010E948815B4C0FC01E60F46
:102D7000F71F9C0122503109E217F30708F4A8C09D
:102D8000D9010D911C91119706171707B0F0053066
:102D9000110508F49BC0C80104978617970708F42B
:102DA00095C002501109061B170B019311936D93E7
:102DB0007C93CF010E94201689C05B01A01AB10A42
:102DC0004C01800E911EA091F503B091F603612C89
:102DD000712CE12CF12C109709F446C08D919C9137
:102DE0001197A815B905B1F56C0142E0C40ED11CCC
:102DF000CA14DB0478F14C018A189B08640142E094
:102E0000C40ED11C1296BC9012971396AC91B5E0EB
:102E1000CB16D10440F0B282A38391828082D90183
:102E20006D937C9309C00E5F1F4F800F911FF901B6
:102E300091838083EB2DFA2FE114F10431F0D70157
:102E40001396FC93EE93129741C0F093F603E09330
:102E5000F5033CC06816790608F43C017D01129622
:102E60000D90BC91A02DB7CF8091F3039091F40306
:102E700088169906E1F466167706C8F48091150164
:102E800090911601009741F48DB79EB740911901BA
:102E900050911A01841B950BE817F907C8F4F093B9
:102EA000F403E093F303F901718360830FC0CB0156
:102EB0000E9488157C01009759F0A801BE010E946C
:102EC0007417CE010E942016C70104C0CE0102C0B3
:102ED00080E090E0CDB7DEB7EEE00C946B1581E0BA
:102EE00090E0F8940C948417FB01DC0102C001907F
:102EF0000D9241505040D8F70895FB01DC0101903C
:102F00000D920020E1F7089510E0C1E8D0E004C080
:102F1000FE010E9482152196C238D107C9F7F894A4
:022F2000FFCFE1
:102F2200000000000100090100B80B0000000001D0
:102F320000090100FF0000F70380000102030405FD
:102F42000610000000005002D409AC009D02DD0012
:102F5200BB00CF000D0A0051554555453A2063612B
:102F62006E2774207065656B206974656D206672CA
:102F72006F6D2071756575653A207175657565208F
:102F8200697320656D7074792E0051554555453A27
:102F920020696E73756666696369656E74206D6516
:102FA2006D6F727920746F20637265617465206140
:102FB200206E6577206E6F64652E00424F54D34EAB
:102FC200203100424F54D34E20320050756C736151
:102FD200646F72204F70746F636F706C61646F0006
:102FE200504952202853656E736F72206465204DDC
:102FF2006F76696D69656E746F2900504F54454E46
:103002004349D34D4554524F203100504F54454E01
:103012004349D34D4554524F20320050484F544FEC
:103022005245534953544F520053454E534F522029
:1030320054454D50455241545552412028544D500B
:103042003336290050484F544F205452414E534971
:1030520053544F5220284F7038303057534C290068
:00000001FF
