:100000000C9482000C94AA000C94AA000C94AA00F0
:100010000C94AA000C94AA000C94AA000C94AA00B8
:100020000C94AA000C94AA000C94AA000C94AA00A8
:100030000C94AA000C94AA000C94AA000C94AA0098
:100040000C94E50A0C94AA000C946A0B0C94440BD3
:100050000C94AA000C94AA000C94AA000C94AA0078
:100060000C94AA000C94AA0050395F31205065729C
:100070007369616E610096021900881300007602B0
:100080000100F4010000A6020A00F4010000AE0223
:100090000A00F4010000B2020A00F4010000B602F6
:1000A0006400F401000000000000240027002A0082
:1000B00000000000250028002B00000000002300A5
:1000C00026002900040404040404040402020202B9
:1000D000020203030303030301020408102040800B
:1000E000010204081020010204081020000000088A
:1000F00000020100000304070000000000000000EF
:100100008B14BB1511241FBECFEFD8E0DEBFCDBFCF
:1001100023E0A0E4B2E001C01D92A93FB207E1F7DD
:1001200012E0A0E0B1E0EAE0F4E302C005900D9235
:10013000A034B107D9F710E0C1E8D0E004C021979E
:10014000FE010E94F617C038D107C9F70E94CD0EF4
:100150000C94F8190C940000FC01538D448D252F4C
:1001600030E0842F90E0821B930B541710F0CF9651
:10017000089501970895FC01918D828D981761F083
:10018000828DDF01A80FB11D5D968C91928D9F5FCE
:100190009F73928F90E008958FEF9FEF0895FC0179
:1001A000918D828D981731F0828DE80FF11D858D2C
:1001B00090E008958FEF9FEF0895FC01918D228DBF
:1001C000892F90E0805C9F4F821B91098F73992744
:1001D000089580E090E0892B29F00E94DB0A8111CC
:1001E0000C94000008958F929F92AF92BF92CF928D
:1001F000DF92EF92FF920F931F93CF93DF93E091E3
:100200004202F0914302208131818217930711F459
:10021000F796ABC0258136818217930719F4E35B0B
:10022000FF4FA3C0228533858217930719F4ED5938
:10023000FF4F9BC0278530898217930719F4E75831
:10024000FF4F93C0248935898217930719F4E1572A
:10025000FF4F8BC0218D328D8217930719F4EB5518
:10026000FF4F83C0268D378D8217930719F4E5540D
:10027000FF4F7BC023A134A18217930709F06EC002
:10028000ED52FF4FC081D181E881F9816181728196
:10029000072E000C880B990B0E940D162FEF3FEFD5
:1002A0004FE95BE30E94481620E030E040E05FE366
:1002B0000E94531720E030E048EC52E40E944816B8
:1002C0004B015C010E94C0176B017C01072E000CE2
:1002D000880B990B0E940D169B01AC01C501B4015E
:1002E0000E94531720E030E048EC52E40E94481688
:1002F0000E94C0178B0169317105BCF09B012A5126
:10030000310921333105A0F0AB014C54510948317A
:10031000510580F4B6016F5F7F4F072E000C880BEC
:10032000990B0E940D164B015C0100E010E002C029
:1003300005E010E08A812B819C81C22FD92FC80F44
:10034000D11DC80FD11DC501B4010E94C01780E0A6
:1003500090E0962F802B9983888330C020A531A50B
:100360008217930759F5E951FF4F309739F1C28150
:10037000D381AB81BC81109761F08A81A80FB11D38
:10038000A80FB11D0990D881C02D89819A818D93C4
:100390009C93208131812115310581F0CF01029696
:1003A000F901DF91CF911F910F91FF90EF90DF90B6
:1003B000CF90BF90AF909F908F900994DF91CF9195
:1003C0001F910F91FF90EF90DF90CF90BF90AF9073
:1003D0009F908F900895CF93DF93CDB7DEB72F977F
:1003E0000FB6F894DEBF0FBECDBFFC0180819181B6
:1003F00086179707A1F485E0DE01169601900D920D
:100400008A95E1F785E0FE013696DE0111960190AE
:100410000D928A95E1F785E0FE01319607C085814E
:1004200096816817790741F485E03596DE011B96C1
:1004300001900D928A95E1F785E0FE013B96DE0181
:10044000169601900D928A95E1F72E813F8148859D
:1004500059856A8570E080E090E02F960FB6F89499
:10046000DEBF0FBECDBFDF91CF910895CF93DF9355
:1004700000D000D01F92CDB7DEB725E0FC01F29688
:10048000DE01119601900D922A95E1F729813A81BA
:100490004B815C816D8170E080E090E00F900F9067
:1004A0000F900F900F90DF91CF910895CF93DF932E
:1004B00000D000D01F92CDB7DEB725E0FC01BD967D
:1004C000DE01119601900D922A95E1F729813A817A
:1004D0004B815C816D8170E080E090E00F900F9027
:1004E0000F900F900F90DF91CF9108950F931F936E
:1004F000CF93DF93C0E0D0E080914E0390914F0303
:10050000C817D90774F48C2F0E94950CFC01008148
:1005100011818C2F0E94950C0296F8010995219665
:10052000EBCFDF91CF911F910F91089584E593E078
:100530000E94300C85E693E00E94300C86E793E041
:100540000E94300C87E893E00C94300C8BEC93E025
:100550000E94300C8CED93E00C94300C88E993E011
:100560000C94300C8AEB93E00C94300C89EA93E005
:100570000C94300C0C940E1781309105B1F030F0D2
:100580008230910511F1039779F10895E0915002BD
:10059000F091510261E080819181892B09F460E042
:1005A0006093EE038091ED030EC0E0915002F09154
:1005B000510261E082819381892B09F460E06093AC
:1005C000F0038091EF030C94B50CE0915002F09190
:1005D000510261E084819581892B09F460E0609388
:1005E0008C0381E090E010C0E0915002F091510244
:1005F00081E026813781232B09F480E080939D03DD
:1006000060918C0384E090E00C94BA02FC01848D2C
:10061000DF01A80FB11DA35ABF4F2C91848D90E02C
:1006200001968F739927848FA689B7892C93A08907
:10063000B1898C91837080648C93938D848D981391
:1006400006C00288F389E02D80818F7D8083089524
:10065000EF92FF920F931F93CF93DF93EC0181E012
:10066000888F9B8D8C8D981305C0E889F9898081CE
:1006700085FD26C0F62E0B8D10E00F5F1F4F0F7308
:100680001127E02E8C8DE8120CC00FB607FCFACFB4
:10069000E889F989808185FFF5CFCE010E940603A4
:1006A000F1CF8B8DFE01E80FF11DE35AFF4FF08271
:1006B0009FB7F8940B8FEA89FB89808180620AC01A
:1006C0009FB7F894EE89FF896083E889F989808172
:1006D0008370806480839FBF81E090E0DF91CF9141
:1006E0001F910F91FF90EF900895CF93DF93EC014E
:1006F000888D8823C9F0EA89FB89808185FD05C042
:10070000A889B9898C9186FD0FC00FB607FCF5CF7B
:10071000808185FFF2CFA889B9898C9185FFEDCFC3
:10072000CE010E940603E7CFDF91CF910895FC012F
:100730001582148217821682118610861382128205
:100740001586148617861686118A108A13861286D5
:1007500008950F931F93CF93DF93EC018B018DE9E5
:1007600092E00E942F0B64E371E08DE992E00E9419
:100770002F0B0990D881C02D209769F0B801CE01C8
:100780000E942F0B64E371E0CE01DF91CF911F91A6
:100790000F910C942F0BDF91CF911F910F91089522
:1007A000CF93DF93CDB7DEB72A970FB6F894DEBFAD
:1007B0000FBECDBFFC012481358145E0F901DE018A
:1007C000169601900D924A95E1F72115310511F029
:1007D00080E005C067E371E00E94A9030FC086179F
:1007E00069F0F9012581368195E0F901DE0116965F
:1007F00001900D929A95E1F78F5FF1CF85E0FE01B0
:100800003696DE01119601900D928A95E1F72981C5
:100810003A814B815C816D8170E080E090E02A96A6
:100820000FB6F894DEBF0FBECDBFDF91CF91089514
:100830009F92AF92BF92CF92DF92EF92FF920F936F
:100840001F93CF93DF93CDB7DEB72A970FB6F894F7
:10085000DEBF0FBECDBFDC0114962D913C911597E4
:10086000121613060CF085C0ED91FD918D010190DB
:10087000F081E02DA180B280C380D480968460E0B6
:10088000CD010E94D0032E833F83488759876A8712
:10089000EE81FF81E180F28060E0C8010E94D00318
:1008A00029833A834B835C836D83E981FA81838159
:1008B0009481209140023091410221303105B1F004
:1008C00038F02230310531F12330310551F12FC09C
:1008D000AC14BD0461F1E816F90649F5911003C0A6
:1008E00081E090E012C082E090E00FC0AC14BD0443
:1008F000F1F491101CC0E816F90629F41092410297
:100900001092400214C083E090E0909341028093E3
:1009100040020DC0AC14BD0451F4B1E09B1207C0FD
:10092000EACFAC14BD0419F4E816F90639F3809146
:1009300040029091410290934D0280934C02E091CD
:100940004003F09141033097A1F084E090E02A96B3
:100950000FB6F894DEBF0FBECDBFDF91CF911F91D0
:100960000F91FF90EF90DF90CF90BF90AF909F904E
:1009700009942A960FB6F894DEBF0FBECDBFDF9163
:10098000CF911F910F91FF90EF90DF90CF90BF908C
:10099000AF909F900895EF92FF920F931F93CF9384
:1009A000DF9300D000D01F92CDB7DEB7DC01ED9110
:1009B000FC910190F081E02D21813281838194812D
:1009C0002817390771F560E084E493E00E94D003B2
:1009D00029833A834B835C836D83E52FF62FE40FE5
:1009E000F11DE40FF11DE080F180B1E0EB2600E0A5
:1009F00010E08091460390914703081719078CF483
:100A0000602F84E493E00E94D003842F5C836D8385
:100A10004C815D81B70190E00E94200C0F5F1F4F59
:100A2000E8CF0F900F900F900F900F90DF91CF9124
:100A30001F910F91FF90EF900895AF92BF92CF92C8
:100A4000DF92EF92FF920F931F93CF93DF9300D02B
:100A500000D01F92CDB7DEB77C01DC01ED91FC9197
:100A60000190F081E02DCC24C394D12C21813281DE
:100A7000838194812817390711F4C12CD12C00E00F
:100A800010E05701BAE0AB0EB11CF70184859585E3
:100A90000817190784F4602FC5010E94D003842F22
:100AA0005C836D834C815D81B60190E00E94200CD7
:100AB0000F5F1F4FEACF0F900F900F900F900F9086
:100AC000DF91CF911F910F91FF90EF90DF90CF902A
:100AD000BF90AF900895AF92BF92CF92DF92EF9206
:100AE000FF920F931F93CF93DF9300D000D01F92FC
:100AF000CDB7DEB7DC01ED91FC910190F081E02DE6
:100B000041815281238134814217530799F58C0129
:100B10005C01BAE0AB0EB11C60E0C5010E94D003DD
:100B200029833A834B835C836D83E52FF62FE40F93
:100B3000F11DE40FF11DC080D180E1E0CE26E12C53
:100B4000F12CD8011C968D919C911D97E816F90601
:100B50008CF46E2DC5010E94D003842F5C836D83BD
:100B60004C815D81B60190E00E94200CBFEFEB1A32
:100B7000FB0AE7CF0F900F900F900F900F90DF912F
:100B8000CF911F910F91FF90EF90DF90CF90BF908A
:100B9000AF900895AF92BF92CF92DF92EF92FF9203
:100BA0000F931F93CF93DF9300D000D01F92CDB748
:100BB000DEB76C0100E010E05C018AE0A80EB11C19
:100BC000E62EF12CF601848595850817190784F423
:100BD000602FC5010E94D003842F5C836D834C81FC
:100BE0005D81B70190E00E94200C0F5F1F4FEACF9C
:100BF0000F900F900F900F900F90DF91CF911F915A
:100C00000F91FF90EF90DF90CF90BF90AF9008953D
:100C10000F931F93CF93DF9300D000D01F92CDB7D7
:100C2000DEB78C01809114018F3FC9F460E0C801E8
:100C30000A960E94D00329833A834B835C836D8399
:100C4000E52FF62FE40FF11DE40FF11D8081918156
:100C5000892B11F081E001C082E080931401809122
:100C60001401813019F08230C1F039C0D801ED9102
:100C7000FC91A081B181E0914E02F0914F0211965A
:100C80002D913C91129784819581281739073CF169
:100C900082E08093140160E016C0D801ED91FC91D0
:100CA000A081B181E0914E02F0914F0211962D91F9
:100CB0003C911297868197818217930784F081E097
:100CC0008093140161E0C8010F900F900F900F9076
:100CD0000F90DF91CF911F910F910C94CA050F9047
:100CE0000F900F900F900F90DF91CF911F910F9168
:100CF00008950F931F93CF93DF93EC01E881F9815F
:100D00000190F081E02D2181328183819481281727
:100D10003907A9F08581882391F00A891B890E94EF
:100D2000340EF8016083718382839383EA89FB899F
:100D30008085811133C081E0808761E028C00E94F6
:100D4000340EEA89FB890081118122813381AB0154
:100D5000BC01401B510B620B730BA681B7810D9038
:100D6000BC91A02D24813581A29FC001A39F900D2D
:100D7000B29F900D1124A0E0B0E084179507A6075C
:100D8000B70760F48085882349F0108660E0CE01C3
:100D9000DF91CF911F910F910C94CA05DF91CF91F4
:100DA0001F910F910895EF92FF920F931F93CF938E
:100DB000DF9300D000D01F92CDB7DEB78C0129831E
:100DC0003A834B835C836D83FC01E680F78087E088
:100DD00090E00E94FC17F80197838683892B29F401
:100DE0006AE671E0C8010E94A903F801A681B781F3
:100DF00016961C921E92159785E0FE013196019081
:100E00000D928A95E1F7F8012481358186819781D9
:100E1000232B19F49583848303C0F701968385837C
:100E2000F801828193810196938382830F900F90C2
:100E30000F900F900F90DF91CF911F910F91FF9026
:100E4000EF9008950F931F93CF93DF93EC018C8164
:100E50009D81009769F0FC01058116810E9494181C
:100E60001D830C838A819B8101979B838A83EFCFAB
:100E700081E0DF91CF911F910F910895EF92FF9242
:100E80000F931F93CF93DF93CDB7DEB72A970FB69B
:100E9000F894DEBF0FBECDBFE4E5F3E0178E81E02E
:100EA0008687009142021091430288E1E82E84E097
:100EB000F82EF801F0AEE7AA65E673E0C8010E94DB
:100EC000EB01C801CB960E94D3060091420210911B
:100ED0004302F801E35BFF4FF182E08264E573E0D7
:100EE000C8010E94EB01C8018F5A9F4F0E94D30690
:100EF0002A960FB6F894DEBF0FBECDBFDF91CF911B
:100F00001F910F91FF90EF9008958F929F92AF9253
:100F1000BF92CF92DF92EF92FF920F931F93CF93E6
:100F2000DF93CDB7DEB7C456D1090FB6F894DEBF54
:100F30000FBECDBF8230910509F481C2B0F4009795
:100F4000E1F0019709F0F1C2E0914E02F0914F02F9
:100F5000638182E090E00E94BA02E0914E02F0913B
:100F60004F02628183E090E07AC28330910509F4F8
:100F70008BC2049709F499C2D8C2E0914E02F09155
:100F80004F02608180E090E00E94BA02E0914E0240
:100F9000F0914F028081813709F447C108F051C0B8
:100FA000823609F4B1C0833609F415C1813609F0DF
:100FB000BCC20E94C50B80914202909143020DE198
:100FC00015E0FC0110AF07ABE55BFF4F118210820B
:100FD0008D5B9F4F0E942207E0904202F0904302F7
:100FE000C7010E945602C7018D5B9F4F0E94D30626
:100FF0008091420290914302FC01E35BFF4F118319
:101000000083749611821082875A9F4F0E94220794
:10101000E0904202F0904302C7010E943602C701ED
:10102000875A9F4F0E94D3068091420290914302BB
:10103000FC01ED59FF4F11830083749611821082D9
:10104000A0C0843809F473C1813909F4E3C182373F
:1010500009F06BC28091420290914302FC01E55479
:10106000FF4F11821082E254F10929E736E0318303
:1010700020838B579F4F0E94220788EE93E0909326
:10108000100180930F0186E492E090931201809307
:1010900011010091420210914302F801E357FF4F02
:1010A0008BE091E091838083C8010E945602C801C1
:1010B0008B579F4F0E94D3060E94C50B809142021E
:1010C0009091430287589F4F0E94E40BE0914202A7
:1010D000F09143028BEC94E090AF87ABDF01A35B10
:1010E000BF4F8D939C93ED59FF4F9183808384E490
:1010F00093E00E94220780914202909143020E9455
:10110000360284E493E083C10E94C50B80914202C1
:10111000909143020BE615E0FC0110AF07AB8D5B2D
:101120009F4F0E942207E0904202F0904302C701C5
:101130000E945602C7018D5B9F4F0E94D30680918B
:10114000420290914302FC01E35BFF4F1183008355
:10115000875A9F4F0E942207E0904202F09043027C
:10116000C7010E943602C701875A9F4F0E94D306CB
:101170008091420290914302FC01ED59FF4F11838F
:10118000008381599F4F0E942207009142021091D3
:101190004302C8010E945602C80181599F4F0E9414
:1011A000D3060091420210914302C8010E94360208
:1011B000C80181599F4F0E94D306809142029091AD
:1011C0004302FC01E554FF4F11821082E254F10901
:1011D00011821082AAC10E94C50BE0914202F091D7
:1011E00043028BEC94E090AF87ABDF01A35BBF4F72
:1011F0008D939C93ED59FF4F9183808384E493E01A
:101200000E94220780914202909143020E9456025E
:1012100084E493E00E94D3068091420290914302BD
:101220000E94360284E493E0C6CF809142029091FE
:10123000430229E7822E26E0922EFC0190AE87AA77
:101240008D5B9F4F0E942207AA24A394B12CB092D9
:101250001001A0920F0148EBC42E4BE0D42ED09287
:101260000A01C092090159E0E52E51E0F52EF092F5
:101270001201E09211010091420210914302F80123
:10128000E55BFF4F8BE091E091838083C8010E9472
:101290005602C8018D5B9F4F0E94D3068091420287
:1012A00090914302FC01E35BFF4F91828082875A59
:1012B0009F4F0E942207B0920501A0920401D09294
:1012C0000A01C0920901F0920701E0920601009123
:1012D000420210914302F801EF59FF4F80E091E084
:1012E00091838083C8010E943602C801875A9F4FAC
:1012F0000E94D3060E94C50B809142029091430246
:10130000C7960E94E40B8091420290914302835B56
:101310009F4F0E94E40B8091420290914302FC0196
:10132000ED59FF4F11821082E85AFF4F4DCF0E94B6
:10133000C50B80914202909143020BE615E0FC013F
:1013400010AF07AB8D5B9F4F0E942207E0904202D7
:10135000F0904302C7010E945602C7018D5B9F4F68
:101360000E94D306E0904202F0904302C7010E941F
:101370003602C7018D5B9F4F0E94D30680914202C7
:1013800090914302FC01E35BFF4F11830083875A76
:101390009F4F0E9422070091420210914302C80110
:1013A0000E945602C801875A9F4F0E94D30600919F
:1013B000420210914302C8010E943602C801875AB6
:1013C0009F4F0E94D3060091420210914302F80100
:1013D000ED59FF4F11821082769611821082EE5BDA
:1013E000FF4F88E096E091838083C8010E945602F7
:1013F000C80189539F4F0E94D30600914202109169
:101400004302C8010E943602C80189539F4F0E94BF
:10141000D3068BC0CC59DF4F0FB6F894DEBF0FBE9A
:10142000CDBFDF91CF911F910F91FF90EF90DF9093
:10143000CF90BF90AF909F908F900C943E07E0911B
:101440004E02F0914F02658185E090E00E94BA0261
:10145000E0914E02F0914F02648186E090E0CC5919
:10146000DF4F0FB6F894DEBF0FBECDBFDF91CF9137
:101470001F910F91FF90EF90DF90CF90BF90AF90B2
:101480009F908F900C94BA02E0914E02F0914F021F
:10149000678187E090E00E94BA02E0914E02F091ED
:1014A0004F02668188E090E0DACFE0914E02F09141
:1014B0004F02808591858130910551F028F082306E
:1014C000910589F0039789F51092F20360E016C048
:1014D0001092F40360E08091F3030E94B50C81E068
:1014E0008093F2030AC011E01093F40361E080914D
:1014F000F3030E94B50C1093F20361E08091F103B5
:10150000CC59DF4F0FB6F894DEBF0FBECDBFDF91D1
:10151000CF911F910F91FF90EF90DF90CF90BF90F0
:10152000AF909F908F900C94B50CCC59DF4F0FB6B5
:10153000F894DEBF0FBECDBFDF91CF911F910F9109
:10154000FF90EF90DF90CF90BF90AF909F908F90E3
:1015500008950C940617CF92DF92EF92FF920F93AB
:101560001F93CF93DF936C017A018B01C0E0D0E031
:10157000CE15DF0581F0D8016D918D01D601ED9179
:10158000FC910190F081E02DC6010995892B11F0A5
:101590002196EECF7E01C701DF91CF911F910F9170
:1015A000FF90EF90DF90CF900895089580E090E055
:1015B00008950E94E3198DE992E00E94DD0021E088
:1015C000892B09F420E0822F08951F920F920FB605
:1015D0000F9211242F933F938F939F93AF93BF93B9
:1015E0008091930290919402A0919502B0919602FD
:1015F0003091920223E0230F2D3720F40196A11D94
:10160000B11D05C026E8230F0296A11DB11D209330
:1016100092028093930290939402A0939502B093C8
:1016200096028091970290919802A0919902B091B0
:101630009A020196A11DB11D809397029093980282
:10164000A0939902B0939A02BF91AF919F918F910D
:101650003F912F910F900FBE0F901F90189561151D
:10166000710579F0FB0101900020E9F73197AF0196
:10167000461B570BDC01ED91FC910280F381E02DBC
:10168000099480E090E008951F920F920FB60F9298
:1016900011242F933F934F935F936F937F938F9377
:1016A0009F93AF93BF93EF93FF938DE992E00E94D6
:1016B0000603FF91EF91BF91AF919F918F917F9121
:1016C0006F915F914F913F912F910F900FBE0F90AF
:1016D0001F9018951F920F920FB60F9211242F93FF
:1016E0008F939F93EF93FF93E091AD02F091AE0241
:1016F0008081E091B302F091B40282FD12C090812A
:101700008091B6028F5F8F732091B702821751F0DC
:10171000E091B602F0E0E356FD4F958F8093B6025C
:1017200001C08081FF91EF919F918F912F910F9038
:101730000FBE0F901F901895833081F028F48130F0
:1017400099F08230A1F008958730A9F08830B9F07F
:101750008430D1F4809180008F7D03C0809180001F
:101760008F7780938000089584B58F7702C084B509
:101770008F7D84BD08958091B0008F7703C08091E4
:10178000B0008F7D8093B0000895CF93DF93809158
:10179000500390915103009799F0FC01C281D381CD
:1017A0000E949418D0935103C093500380914E032C
:1017B00090914F03019790934F0380934E03E7CF8F
:1017C00081E0DF91CF9108950F931F93CF93DF9323
:1017D0008C01C0915203D091530384E090E00E94A9
:1017E000FC179093530380935203892B31F46AE6DC
:1017F00071E08CE493E00E94A903E0915203F09120
:1018000053031382128211830083809150039091BD
:101810005103892B29F4F0935103E093500302C044
:10182000FB83EA8380914E0390914F03019690933E
:101830004F0380934E03DF91CF911F910F91089535
:101840009C01220F331FFA01E20FF31F71836083A3
:10185000E0914203F0914303309709F00994089511
:101860000F931F93CF93DF93FC012581222309F46B
:1018700057C0EC0186819781009719F0019729F1F3
:101880003CC0208130E0F901E451FF4F8491F9011F
:10189000E852FF4F0491F901EC53FF4F14911123CB
:1018A00061F181110E949C0BE12FF0E0EE0FFF1F10
:1018B000E654FF4FA591B491EC91E02331E020E094
:1018C00009F430E0832F922F1AC080818E3008F007
:1018D0008E508770806480937C0080917A00806451
:1018E00080937A0080917A0086FDFCCF8091780009
:1018F0002091790090E0922B02C080E090E0298155
:101900003A812817390761F09A838983EF85F8892E
:10191000309731F0CE01DF91CF911F910F91099453
:10192000DF91CF911F910F910895CF93DF93E091B5
:101930005003F0915103C081D181309711F090E0B4
:1019400007C067E371E08CE493E00E94A90309C03B
:10195000981739F00280F381E02DC081D1819F5F1B
:10196000F7CFCE01DF91CF9108951F93CF93DF93EF
:10197000282F30E0F901E451FF4F8491F901E8523A
:10198000FF4FD491F901EC53FF4FC491CC23C1F028
:10199000162F81110E949C0BEC2FF0E0EE0FFF1F21
:1019A000E055FF4FA591B4919FB7F894111104C071
:1019B0008C91D095D82302C0EC91DE2BDC939FBF95
:1019C000DF91CF911F9108953FB7F89480919702CE
:1019D00090919802A0919902B0919A0226B5A89B85
:1019E00005C02F3F19F00196A11DB11D3FBFBA2FB1
:1019F000A92F982F8827820F911DA11DB11DBC0111
:101A0000CD0142E0660F771F881F991F4A95D1F7D5
:101A100008958F929F92AF92BF92CF92DF92EF92F2
:101A2000FF926B017C010E94E40C4B015C01C1142C
:101A3000D104E104F104F1F00E94E40CDC01CB01DB
:101A400088199909AA09BB09883E9340A105B105E7
:101A500070F321E0C21AD108E108F10888EE880E7F
:101A600083E0981EA11CB11CC114D104E104F1044F
:101A700019F7DDCFFF90EF90DF90CF90BF90AF9040
:101A80009F908F9008950F931F93CF93DF938C01B6
:101A9000C62F80913B03823074F09091C000906417
:101AA0009093C00061E00E94B50C61E070E080E0BE
:101AB00090E00E94090D902FF8012FEF3FEF8E2F3D
:101AC000891B8C1788F48191282788E0A90141702F
:101AD000552736952795452B21F041E0242740EAEC
:101AE0003427815099F7EBCF322723273227F8018B
:101AF000EC0FF11D308381E08C0FF801E80FF11D30
:101B00002083CE5F80919B0290919C02D0E0DC010B
:101B1000ED91FC910280F381E02DAE01B8010995B1
:101B20006AE070E080E090E00E94090D80913B0344
:101B300082303CF09091C00096FFFCCF60E00E94A4
:101B4000B50CCE01DF91CF911F910F9108950F93A6
:101B50001F93CF93DF93CDB7DEB7C054D1090FB633
:101B6000F894DEBF0FBECDBF90913A0399838A836C
:101B700081E08B83CB01880F991FF901E80FF91FD2
:101B8000CB0120E0DB01A40FB11D382F361B8A17D3
:101B90009B0778F40191119141E050E0012B11F481
:101BA00040E050E001C0440F3A95EAF7242B01963B
:101BB000ECCF2C8364E0CE0101960E94430DC05C03
:101BC000DF4F0FB6F894DEBF0FBECDBFDF91CF91D0
:101BD0001F910F910895EF92FF920F931F93CF9350
:101BE000DF93CDB7DEB7C054D1090FB6F894DEBF8E
:101BF0000FBECDBF90913A0399838A83842F880FBB
:101C00008B83CB01880F991F280F391FDE01119696
:101C10007B0163E070E0CD018701040F111D129676
:101C2000E016F10688F4F901408151812E5F3F4FA3
:101C300011965C93119712964C9312976E5F7F4F9B
:101C4000FFEFEF1AFF0AEBCF0E94430DC05CDF4F9E
:101C50000FB6F894DEBF0FBECDBFDF91CF911F91BD
:101C60000F91FF90EF9008952FB7F8946091930231
:101C70007091940280919502909196022FBF0895E1
:101C80000F931F93CF93DF93EC018C01085F1F4FDD
:101C9000198618861B861A861D861C8660E070E0F1
:101CA000C8010E94680E811107C0C801DF91CF9161
:101CB0001F910F910C948F0E1D861C8666E371E0B8
:101CC00088859985DF91CF911F910F910C94F1191F
:101CD0000F931F93CF93DF93EC0188819981009735
:101CE00029F02A813B812617370788F48B016F5F23
:101CF0007F4F0E941D19009761F0998388831B8391
:101D00000A832C813D81232B11F4FC01108281E098
:101D100001C080E0DF91CF911F910F910895CF9383
:101D2000DF93EC0188819981009711F00E9494184B
:101D3000198218821D821C821B821A82DF91CF9128
:101D40000895EF92FF920F931F93CF93DF938C012F
:101D50007B016115710569F0FB0101900020E9F735
:101D60003197EF01C61BD70BBE010E94680E81118F
:101D700004C0C8010E948F0E08C0F801D583C48337
:101D8000B701808191810E94F119C801DF91CF9143
:101D90001F910F91FF90EF900895CF93DF93CDB7F0
:101DA000DEB7C055D1090FB6F894DEBF0FBECDBF68
:101DB000789484B5826084BD84B5816084BD85B526
:101DC000826085BD85B5816085BD80916E00816032
:101DD00080936E00109281008091810082608093D8
:101DE00081008091810081608093810080918000DA
:101DF0008160809380008091B10084608093B10005
:101E00008091B00081608093B00080917A008460FE
:101E100080937A0080917A00826080937A0080912A
:101E20007A00816080937A0080917A008068809344
:101E30007A001092C1008DE992E090939C02809309
:101E40009B0284E492E090934F0280934E0284E6DA
:101E500092E090935102809350028CE592E090932F
:101E600073028093720282E592E0909371028093F4
:101E7000700285E080936D0224E0C22EC0926F0252
:101E8000C0926E0280936C023324339430923A03F2
:101E900010923B03E091AD02F091AE0232E0232EAE
:101EA0002082E091A902F091AA021082E091AB0297
:101EB000F091AC0287E680831092B502E091B10206
:101EC000F091B20246E0D42ED082E091AF02F091C0
:101ED000B002808180618083E091AF02F091B00216
:101EE000808188608083E091AF02F091B0028081B0
:101EF00080688083E091AF02F091B00280818F7D95
:101F000080838091C20086608093C2008EE197E05A
:101F1000A0E0B0E080933C0390933D03A0933E0388
:101F2000B0933F0383E191E00E94FC178C01C996B6
:101F30000E94970348012DE4820E911CC401029671
:101F40000E949703580133E6A30EB11CC501029607
:101F50000E949703680149E7C40ED11CC60102968E
:101F60000E94970378015FE8E50EF11CC701029615
:101F70000E949703380185EA680E711CC30102961E
:101F80000E94970328019BEB490E511CC201029647
:101F90000E949703D801AF52BF4F2B96BFAFAEAF91
:101FA0002B97CD0102960E949703F801E951FF4F4C
:101FB0002D96FFAFEEAF2D97CF0102960E949703AB
:101FC000C80181509F4F0E94970384E593E0D80198
:101FD00011969C938E93E0917202F0917302149685
:101FE000FC93EE93139712961C92129783EF90E056
:101FF000909364038093630325E633E016963C9345
:102000002E9315971996FC93EE93189717963C927A
:102010001797909375038093740326E733E01B961C
:102020003C932E931A971E96FC93EE931D971C9645
:102030002C921C97909386038093850327E833E0C6
:1020400050963C932E931F975396FC93EE93529782
:1020500043E051964C93519720918A0330918B0322
:102060003783268390939703809396032BEC33E07A
:1020700055963C932E9354972091700230917102A3
:1020800058963C932E93579756961C92569790933A
:10209000DB038093DA036CED73E05A967C936E93C6
:1020A00059975D963C932E935C975B963C925B9719
:1020B0009093EC038093EB0368E973E05F967C9365
:1020C0006E935E9792963C932E93919790962C9256
:1020D00090979093A8038093A70369EA73E094967E
:1020E0007C936E93939797963C932E9396979596A1
:1020F0004C9395979093B9038093B8034AEB53E0C0
:1021000099965C934E9398979C963C932E939B97AD
:10211000E4E09A96EC939A979093CA038093C9034C
:102120008DEE93E09E969C938E939D9780915002A6
:1021300090915102D1969C938E93D0979F961C922A
:102140009F972FEE33E0D3963C932E93D297D6965B
:102150009C938E93D597D4963C92D497D8961C9204
:102160001E92D797DA961C930E93D997D4011D929D
:102170001C92F801E15BFF4FC801059691838083B3
:10218000F501118210823296059691838083D601E3
:102190001D921C927696059691838083F701118299
:1021A00010823296059691838083D3011D921C92F2
:1021B0007696059691838083F20111821082329681
:1021C0000596918380832B96AEADBFAD2B971D9264
:1021D0001C9276960596918380832D96EEADFFAD89
:1021E0002D9711821082F801E751FF4F05969183D8
:1021F000808310934302009342028CEB92E0909311
:1022000043038093420385E897E0909341038093D2
:1022100040030E943E0781E090E00E94A90A682FD7
:1022200070E044E652E082E090E00E94200CE090F2
:102230004E02F0904F0282E090E00E94A90A182F0F
:1022400083E090E00E94A90A212F30E0322F22275C
:10225000280F311DD70113963C932E93129784E0DB
:1022600090E00E94A90A682F70E044E652E083E003
:1022700090E00E94200CE0904E02F0904F0285E02A
:1022800090E00E94A90A182F86E090E00E94A90A17
:10229000212F30E0322F2227280F311DF7013583FF
:1022A000248387E090E00E94A90A182F88E090E03C
:1022B0000E94A90A212F30E0322F2227280F311D3A
:1022C000D70117963C932E93169786E790E090934C
:1022D0007B0280937A02B6E0B0937C028CE090E0BF
:1022E0000E94FC179093800280937F022CE0FC01F7
:1022F00011922A95E9F710927E0210927D0208E66B
:1023000010E0F8016491611111C064E371E08DE99E
:1023100092E00E942F0B80E1282E9E012F5F3F4FFD
:10232000590192E2892E91E0992E6DC08DE992E0DB
:102330000E9428030F5F1F4F892B19F7E6CF0E94D9
:10234000E40C60938E0270938F02809390029093BE
:10235000910280919B0290919C02DC01ED91FC9195
:102360000084F185E02D09958C010E94E40C011593
:10237000110509F05EC010927902109278028091E6
:102380007D0290917E02019690937E0280937D0261
:1023900040908E0250908F02609090027090910257
:1023A0000E94E40C50E1450E57E2551E611C711C61
:1023B000461A570A680A790A82010E94E40C312CF5
:1023C00020917C02321608F419C180918902909103
:1023D0008A02A0918B02B0918C02800F911FA11DE7
:1023E000B11D8093890290938A02A0938B02B093CF
:1023F0008C0280918D028F5F803209F477C18093C7
:102400008D020E94E9000E94E40C00918E0210915E
:102410008F022091900230919102DC01CB01801B50
:10242000910BA20BB30B81319742A105B10548F383
:1024300086CF209178023091790202171307D9F0E4
:10244000109379020093780200913C0310913D03B0
:1024500020913E0330913F03DC01CB01800F911F9F
:10246000A21FB31F8093740290937502A09376020B
:10247000B093770284CF009174021091750220917D
:10248000760230917702601771078207930708F48C
:1024900076CF10927902109278026501612C712C2E
:1024A00080919B0290919C02DC01ED91FC91008453
:1024B000F185E02D09958C01892BB1F080919B026B
:1024C00090919C02DC01ED91FC910284F385E02D5A
:1024D0000995F60181936F01FFEF6F1A7F0A20E4DF
:1024E00062167104E9F685C06114710409F47EC0B6
:1024F0003EEF360DF5018FEF9FEF2E2F2A19231790
:1025000088F42191822728E0AC01417055279695E7
:102510008795452B21F041E0842740EA94272150FC
:1025200099F7EBCFEFEFFFEFEC0FFD1FE60DF71D77
:10253000208130E0322F2227FE01E60DF71D408179
:10254000242B9827892798272817390709F051C085
:10255000E0913A038981E8134CC09A81ABE1B1E084
:102560008D918917B1F08A169B06D1F701E010E032
:102570002296EFAF2297905823969FAF23972496E9
:102580000FAF249763E0CE018F5B9F4F0E94430DF6
:102590002DC0963089F0953009F0BFC02B8130E016
:1025A000322F22278C81280F311D40916F0250E07D
:1025B0002417350708F06BC1AB81B0E0BA2FAA270A
:1025C0008C81A80FB11D933009F4F3C008F0EAC064
:1025D000913009F0DBC020915002309151024E81C0
:1025E000BD0181E090E00E94A70D8C01012B09F450
:1025F000C6CE0E94340E0E94340EC1CE232D30E090
:102600006901CC0CDD1C53E0220F331F5A95E1F712
:10261000E0917A02F0917B02DF01A20FB31FFD016E
:10262000329645915491E0917F02F0918002EC0D39
:10263000FD1D20917D0230917E020190F081E02D00
:102640002E1B3F0B2417350708F44EC0FD013496AE
:102650002591349140E050E0209381023093820232
:1026600040938302509384022801612C712C4216FE
:10267000530664067506C0F1609385027093860266
:102680008093870290938802FD0185919491FC01CB
:10269000099580917D0290917E0220917F02309178
:1026A0008002F901EC0DFD1D918380830E94E40CF2
:1026B000C0908502D0908602E0908702F090880258
:1026C0009B01AC012C193D094E095F0961962CAFA5
:1026D0003DAF4EAF5FAF61972415350546055705F1
:1026E00008F087CE021B130B33946ACE20928D0222
:1026F0008091890290918A02A0918B02B0918C0204
:10270000B695A795979587958093890290938A02AD
:10271000A0938B02B0938C0274CE4D8150E0542F65
:1027200044278E81480F511D923019F420916E027A
:1027300004C0913029F420916F0230E068E00FC0AE
:10274000933019F420916D0204C0943029F4209143
:102750006C0230E069E103C020E030E060E0411548
:10276000510509F491C070E06417750708F48CC036
:102770006B8170E0762F66278C81680F711D460F84
:10278000571F2417350708F482C016CF923009F07E
:1027900078C020917202309173024E81BD0182E0B7
:1027A00090E021CF953009F448C060F09630A9F050
:1027B00068C020914E0230914F024E81BD0183E0EE
:1027C00090E008C020917002309171024E81BD01ED
:1027D00084E090E00E94EB0D08CF40914E025091B2
:1027E0004F022D813E813227232732272296EFAFD9
:1027F000229723969FAF23972496BFAF24972596C1
:10280000AFAF259726963FAF269727962FAF2797EE
:10281000CD01880F991FFA01E80FF91F318320833A
:10282000E0914003F0914103309711F0CD010995FB
:102830008DE992E00E9475031EC0409150025091B4
:1028400051026D817E817627672776272296EFAF2A
:10285000229723969FAF23972496BFAF2497259660
:10286000AFAF259726967FAF269727966FAF27970E
:10287000CD010E94200C66E0CE018F5B9F4F0E942D
:10288000430D01E010E0B2CE03E010E071CE02E0B3
:1028900010E06ECEFC01808191810C949418CF934E
:1028A000DF9390E0FC01E852FF4F2491FC01EC53D0
:1028B000FF4F8491882361F190E0880F991FFC01FC
:1028C000EA55FF4FC591D491FC01E055FF4FA5910A
:1028D000B491611109C09FB7F89488812095822333
:1028E0008883EC912E230BC0623061F49FB7F8947B
:1028F0008881322F309583238883EC912E2B2C9363
:102900009FBF06C08FB7F894E8812E2B28838FBF16
:10291000DF91CF910895EF92FF921F93CF93DF93B2
:10292000EDE9F2E01382128288EE93E0A0E0B0E0DD
:1029300084839583A683B78386E291E09183808325
:1029400085EC90E09587848784EC90E09787868774
:1029500080EC90E0918B808B81EC90E0938B828B6C
:1029600082EC90E0958B848B86EC90E0978B868B45
:10297000118E128E138E148E84E593E00E94400E09
:1029800085E693E00E94400E86E793E00E94400EA9
:1029900087E893E00E94400E88E993E00E94400E91
:1029A00089EA93E00E94400E8AEB93E00E94400E79
:1029B0008BEC93E00E94400E8CED93E00E94400E61
:1029C00060E083E00E944F1460E084E00E944F14B6
:1029D00060E08DE00E944F1461E088E00E944F1497
:1029E00061E08BE00E944F1461E085E00E944F148B
:1029F00061E08CE00E944F14C4E5D3E083E088835B
:102A000011E01D831F821E826BE971E08CE593E06B
:102A10000E94A10EEE24E394F12CFC82EB8284E070
:102A2000898B1E8B188E1F8A63EA71E08DE693E016
:102A30000E94A10EFD8AEC8A8DE08AA31FA319A62D
:102A400018A66BEA71E08EE793E00E94A10E1EA229
:102A50001DA287E08BAB18AF1AAE19AE60EC71E027
:102A60008FE893E00E94A10E1FAA1EAA82E1809324
:102A7000CB031093D003F092D203E092D1036BED1D
:102A800071E083ED93E00E94A10E83E18093DC036B
:102A90001093E103F092E303E092E2036BEE71E046
:102AA00084EE93E00E94A10E8EE080939803109331
:102AB0009D03F0929F03E0929E036BEF71E080EA2A
:102AC00093E00E94A10E80E18093A9031093AE03CE
:102AD000F092B003E092AF0369E072E081EB93E023
:102AE0000E94A10E81E18093BA031093BF03F0927C
:102AF000C103E092C00364E272E082EC93E00E94C2
:102B0000A10E88E08093ED031092EE038BE080939A
:102B1000EF031092F0038CE08093F1031092F20324
:102B200085E08093F3031092F403E4E4F3E013826E
:102B30001282158214821782168211821082ECE4AE
:102B4000F3E0138212821582148217821682118298
:102B50001082EAE3F3E0118210821282138214825F
:102B600015821782168211861086DF91CF911F91F0
:102B7000FF90EF900895CF93DF93C0915003D091D1
:102B80005103CD2B71F08091500390915103FC01C2
:102B9000C281D3810E949418D0935103C0935003F3
:102BA000F0CFC0914803D0914903CD2B71F08091B3
:102BB000480390914903FC01C581D6810E94941875
:102BC000D0934903C0934803F0CF84EE93E00E9472
:102BD0004A1483ED93E00E944A1482EC93E00E9431
:102BE0004A1481EB93E00E944A1480EA93E00E9429
:102BF0004A148FE893E00E944A148EE793E00E9403
:102C00004A148DE693E00E944A148CE593E0DF912C
:102C1000CF910C944A14E89409C097FB3EF4909528
:102C20008095709561957F4F8F4F9F4F9923A9F0A5
:102C3000F92F96E9BB279395F69587957795679534
:102C4000B795F111F8CFFAF4BB0F11F460FF1BC078
:102C50006F5F7F4F8F4F9F4F16C0882311F096E90B
:102C600011C0772321F09EE8872F762F05C06623B9
:102C700071F096E8862F70E060E02AF09A95660F72
:102C8000771F881FDAF7880F9695879597F908952B
:102C90000E945B160C94CC160E94BE1638F00E945F
:102CA000C51620F0952311F00C94B5160C94BB16A4
:102CB00011240C9400170E94DD1670F3959FC1F348
:102CC000950F50E0551F629FF001729FBB27F00DDA
:102CD000B11D639FAA27F00DB11DAA1F649F66272F
:102CE000B00DA11D661F829F2227B00DA11D621F7E
:102CF000739FB00DA11D621F839FA00D611D221F38
:102D0000749F3327A00D611D231F849F600D211D1B
:102D1000822F762F6A2F11249F5750409AF0F1F09E
:102D200088234AF0EE0FFF1FBB1F661F771F881F07
:102D300091505040A9F79E3F510580F00C94B51674
:102D40000C9400175F3FE4F3983ED4F38695779593
:102D50006795B795F795E7959F5FC1F7FE2B880FAD
:102D6000911D9695879597F9089597F99F6780E843
:102D700070E060E008959FEF80EC089500240A94CD
:102D80001616170618060906089500240A94121646
:102D90001306140605060895092E0394000C11F479
:102DA000882352F0BB0F40F4BF2B11F460FF04C026
:102DB0006F5F7F4F8F4F9F4F089557FD9058440F7F
:102DC000551F59F05F3F71F04795880F97FB991F8A
:102DD00061F09F3F79F08795089512161306140647
:102DE000551FF2CF4695F1DF08C0161617061806D4
:102DF000991FF1CF86957105610508940895E894AF
:102E0000BB2766277727CB0197F90895F999FECF5D
:102E100092BD81BDF89A992780B50895262FF9991A
:102E2000FECF1FBA92BD81BD20BD0FB6F894FA9AAD
:102E3000F99A0FBE019608952F923F924F925F929A
:102E40006F927F928F929F92AF92BF92CF92DF92BA
:102E5000EF92FF920F931F93CF93DF93CDB7DEB71F
:102E6000CA1BDB0B0FB6F894DEBF0FBECDBF0994B3
:102E70002A88398848885F846E847D848C849B840A
:102E8000AA84B984C884DF80EE80FD800C811B8118
:102E9000AA81B981CE0FD11D0FB6F894DEBF0FBE47
:102EA000CDBFED0108955058BB27AA270E946B178C
:102EB0000C94CC160E94BE1638F00E94C51620F065
:102EC00039F49F3F19F426F40C94BB160EF4E095E8
:102ED000E7FB0C94B516E92F0E94DD1658F3BA17DC
:102EE000620773078407950720F079F4A6F50C9420
:102EF000FF160EF4E0950B2EBA2FA02D0B01B90191
:102F000090010C01CA01A0011124FF27591B99F05F
:102F1000593F50F4503E68F11A16F040A22F232F6B
:102F2000342F4427585FF3CF469537952795A795BB
:102F3000F0405395C9F77EF41F16BA0B620B730B62
:102F4000840BBAF09150A1F0FF0FBB1F661F771FD3
:102F5000881FC2F70EC0BA0F621F731F841F48F488
:102F6000879577956795B795F7959E3F08F0B0CF11
:102F70009395880F08F09927EE0F979587950895F8
:102F80000E94C7176894B1110C94001708950E940D
:102F9000E51688F09F5798F0B92F9927B751B0F0F0
:102FA000E1F0660F771F881F991F1AF0BA95C9F7CD
:102FB00014C0B13091F00E94FF16B1E008950C9456
:102FC000FF16672F782F8827B85F39F0B93FCCF309
:102FD000869577956795B395D9F73EF4909580954A
:102FE000709561957F4F8F4F9F4F0895EE0FFF1F94
:102FF0000590F491E02D09940F931F93CF93DF93E5
:103000008230910510F482E090E0E091F703F091B6
:10301000F80320E030E0A0E0B0E0309719F1408103
:1030200051810281138148175907C8F08417950709
:1030300069F4109731F012960C93129713961C9323
:1030400027C00093F7031093F80322C02115310520
:1030500019F04217530718F49A01BD01EF01DF017F
:10306000F801DBCF21153105F9F0281B390B24308D
:10307000310580F48A819B816115710521F0FB0186
:103080009383828304C09093F8038093F703FE0137
:10309000329644C0FE01E20FF31F819391932250B8
:1030A0003109398328833AC02091F5033091F60322
:1030B000232B41F420911701309118013093F6032E
:1030C0002093F5032091150130911601211531054A
:1030D00041F42DB73EB74091190150911A01241BBC
:1030E000350BE091F503F091F603E217F307A0F436
:1030F0002E1B3F0B2817390778F0AC014E5F5F4F4E
:103100002417350748F04E0F5F1F5093F603409386
:10311000F5038193919302C0E0E0F0E0CF01DF91ED
:10312000CF911F910F910895CF93DF93009709F4EA
:1031300081C0FC01329713821282A091F703B091F3
:10314000F803109781F420813181820F931F209121
:10315000F5033091F6032817390751F5F093F6037C
:10316000E093F50367C0ED0120E030E0CE17DF0704
:1031700040F44A815B819E0141155105F1F0EA015D
:10318000F5CFD383C28340815181840F951FC81727
:10319000D90759F488819981840F951F02969183EC
:1031A00080838A819B81938382832115310529F451
:1031B000F093F803E093F7033DC0E901FB83EA8352
:1031C00049915991C40FD51FEC17FD0761F4808117
:1031D0009181840F951F0296E901998388838281EA
:1031E00093819B838A83E0E0F0E012968D919C911D
:1031F0001397009719F0FD01DC01F7CF8D919C9199
:1032000011979D012E5F3F4F820F931F2091F50371
:103210003091F6032817390769F4309729F4109292
:10322000F8031092F70302C013821282B093F603E0
:10323000A093F503DF91CF910895A0E0B0E0E3E221
:10324000F9E10C942017EC01009721F4CB010E94C6
:10325000FC17B4C0FC01E60FF71F9C012250310996
:10326000E217F30708F4A8C0D9010D911C9111973A
:1032700006171707B0F00530110508F49BC0C80108
:1032800004978617970708F495C002501109061B8A
:10329000170B019311936D937C93CF010E949418A7
:1032A00089C05B01A01AB10A4C01800E911EA09149
:1032B000F703B091F803612C712CE12CF12C1097DD
:1032C00009F446C08D919C911197A815B905B1F5E7
:1032D0006C0142E0C40ED11CCA14DB0478F14C012D
:1032E0008A189B08640142E0C40ED11C1296BC905F
:1032F00012971396AC91B5E0CB16D10440F0B28290
:10330000A38391828082D9016D937C9309C00E5F63
:103310001F4F800F911FF90191838083EB2DFA2FAE
:10332000E114F10431F0D7011396FC93EE93129758
:1033300041C0F093F803E093F7033CC068167906A8
:1033400008F43C017D0112960D90BC91A02DB7CFE1
:103350008091F5039091F60388169906E1F46616BC
:103360007706C8F48091150190911601009741F4F9
:103370008DB79EB74091190150911A01841B950B8E
:10338000E817F907C8F4F093F603E093F503F901A1
:10339000718360830FC0CB010E94FC177C010097F2
:1033A00059F0A801BE010E94E819CE010E949418AC
:1033B000C70104C0CE0102C080E090E0CDB7DEB707
:1033C000EEE00C943C1781E090E0F8940C94F8192E
:1033D000FB01DC0102C001900D9241505040D8F732
:1033E0000895FB01DC0101900D920020E1F70895A2
:1033F00010E0C1E8D0E004C0FE010E94F61721965B
:0A340000C238D107C9F7F894FFCFD6
:10340A00000000000100090100B80B0000000001E3
:10341A0000090100FF0000F903800001020304050E
:10342A000610000000002803AB0AAC007503DD009B
:10343A00BB00CF000D0A0051554555453A2063613E
:10344A006E2774207065656B206974656D206672DD
:10345A006F6D2071756575653A20717565756520A2
:10346A00697320656D7074792E0051554555453A3A
:10347A0020696E73756666696369656E74206D6529
:10348A006D6F727920746F20637265617465206153
:10349A00206E6577206E6F64652E00424F54D34EBE
:1034AA00203100424F54D34E20320050756C736164
:1034BA00646F72204F70746F636F706C61646F0019
:1034CA00504952202853656E736F72206465204DEF
:1034DA006F76696D69656E746F2900504F54454E59
:1034EA004349D34D4554524F203100504F54454E15
:1034FA004349D34D4554524F20320050484F544F00
:10350A005245534953544F520053454E534F52203C
:10351A0054454D50455241545552412028544D501E
:10352A003336290050484F544F205452414E534984
:10353A0053544F5220284F7038303057534C29007B
:00000001FF
